:10000000FC7F00204D0600003D0600004106000078
:1000100000000000000000000000000000000000E0
:100020000000000000000000000000004506000085
:10003000000000000000000049060000D507000095
:1000400010B5064C2378002B07D1054B002B02D0AE
:10005000044800E000BF0123237010BD58000020B9
:1000600000000000DC1B0000044B10B5002B03D087
:100070000349044800E000BF10BDC0460000000076
:100080005C000020DC1B00001B4B1B78002B0AD1FE
:100090001A4B1B781A4A11785B18DBB21370194B94
:1000A00080229203DA61144A13780133DBB21370B1
:1000B000134B1B78DBB2F02B04D8114B1B78DBB24F
:1000C000092B0BD80D4A13785BB25B425BB21370FD
:1000D00013780B4A11785B18DBB21370064B1B7850
:1000E000074A1278DBB2934200D07047054B80225A
:1000F0009203DA61F9E7C046740000200000002096
:10010000010000200044004110B5C3699B07FCD4E6
:1001100003680224A3430360C369DB07FCD40368BC
:100120000124234303600368DB07FCD4C369DB07B6
:10013000FCD4C3699B07F9D4084B1A430260C36916
:100140005B07FCD4C0239B0243608181C3699B078A
:10015000FCD4036802221343036010BD0400004076
:10016000037EDB07FCD589B201857047037E5B0700
:10017000FCD5438BDB0705D4438B9B0702D4438B11
:100180005B0702D5024B01221A70008DC0B2704786
:1001900075000020F8B5040003689A8B120707D495
:1001A0000822FF329B5CDB062FD500F057FB2CE0CA
:1001B00008229A8378329A7280214900112058547B
:1001C00040260621FF315E5482256D005A55104AA3
:1001D0005168104F3940C02080050143516051697A
:1001E0003940084350610C4911600C491161516854
:1001F0000B48084080218902014351605168890BF6
:10020000890351605E55002323712079F8BDC046F3
:1002100090010020FFFFFF8F9000002010010020C0
:10022000FF3F00F00160002303714371034B8360C3
:100230000B78022213430B707047C04695010000F3
:1002400010B5394AD36920210B43D361374B38317C
:100250005A5C012422435A543C22985C4939884311
:100260009854985C0621084398545920195C2143FE
:100270001954995C4A3801409954995C60200143B3
:1002800099542B4B2B4A5A801A0053785BB2002B9F
:10029000FBDB294A137801210B4313709378DB07AA
:1002A000FCD4264B1B689B03DB0E1F2B36D0224948
:1002B0000A8D9B012248024013430B851F4B1B688C
:1002C0005B02DB0E1F2B2BD01B490A8D1F208243A4
:1002D00013430B85194B1A689201520F072A21D03C
:1002E000154B198D1203174801400A431A851978D6
:1002F0007F220A401A701A7804210A431A701248A1
:1003000058621A890C218A431A811A890B398A4347
:100310001A818022002101F0DAFA10BD1A3BC6E7EB
:10032000023BD1E7043ADBE700040040004400410F
:10033000000C004006400000005000412460800096
:100340003FF8FFFFFF8FFFFF90010020F0B5C6468A
:1003500000B5050016001C0098465A01214B9B1859
:1003600010335B685B005B0F033301229A40B2429B
:100370002BD862011B4B9B1858698022120602433E
:100380005A616201174B9B181A0019615B69B1042D
:10039000890C9B0B9B030B435361536912490B4020
:1003A0005361083464012C190223E3716279823BA2
:1003B000134363714046083040012818C3799B07F6
:1003C000FCD5300004BC9046F0BD27007B1E9F4149
:1003D000BF01064BFF183200380001F06FFA3900F8
:1003E000CFE7C04690010020FF3F00F01001002041
:1003F00070B505000E0014001B4B1B78002B14D1A8
:100400001A4B1B4A1A645A6C920B92035A645A6C28
:1004100018490A405A64A2225200835C40210B43CF
:100420008354114B443AFF3A1A704823FF33EB5C74
:100430000020DB0716D50D4B5B6C9B049B0CA34285
:1004400003D20A4B5C6CA404A40C220008493000BF
:1004500001F034FA4823FF330122EA54024B002210
:100460001A70200070BDC046760000209001002068
:10047000D0000020FF3F00F0002906D10622FF3205
:10048000835C10210B43835470470622FF32835C48
:1004900020210B438354F7E70A4A53699B0B9B03C4
:1004A00053610823FF330222C2540622FF32815CCB
:1004B000883BFF3B0B4383540822FF32835C9B073E
:1004C000FCD570479001002080235B421943C9B2DC
:1004D0008172704770B5A0235B000322C254134B96
:1004E0005A6C134C2240C02189050A435A644025A6
:1004F0004622FF3285540F4A1A6490225200302659
:1005000086545A6B22401143596380219222520033
:100510008154094A1A63B022520085545A6F22400E
:100520005A67B2235B00C15470BDC04690010020E1
:10053000FFFFFF8FD000002050010020024A5378B7
:100540005BB2002BFBDB7047000C0040024910221D
:10055000CB681A42FCD070470008004070B52C4AA6
:1005600053681E218B431C390B435360294B2A4A85
:100570009A829A8A0A439A8219000222CB681A4206
:10058000FCD0264C0123A360FFF7D8FF244B636007
:10059000FFF7D4FF8223DB016380FFF7CFFF1D4C01
:1005A000A38C80229343A384FFF7D0FF1D4BE3620B
:1005B000FFF7CCFFA38C1C4A1343A384FFF7C6FFAD
:1005C000A38C02221343A384220080214020D368FD
:1005D0001942FCD0D3681842F9D0FFF7B7FF0F4D8E
:1005E0000024AC60FFF7AAFF104B6B60FFF7A6FF7B
:1005F0000F4A104B53601048036A1B021B0AC021AC
:1006000009060B43036294600723136070BDC04664
:1006100000400041000800400C060000000C0040B3
:1006200001050100B805FF7D040A00000007030072
:1006300010E000E0E703000000ED00E00EBEFEE782
:100640000DBEFEE705BEFEE702BEFEE710B5164A88
:10065000164B9A4215D0164A134B9A4211D01A00E3
:10066000124B9A420DD20333124A9B1A9B08013354
:100670009B0000220C480E498C58845004329A4248
:10068000FAD10D4A0D4B9A420AD009D2111D0333FB
:100690005B1A032083435B18002102C29A42FCD1FB
:1006A00000F00EF8FEE7C0460000002058000020D1
:1006B000E01B00000400002058000020A0030020E0
:1006C000F8B500AF374B1B68013323D0364B374AA0
:1006D0001360043BFF2213421CD13549C73A8A5CA0
:1006E000D2070FD5334A002111602E4A126882F3D7
:1006F0000888FF229343304A93602C4B1B681B6889
:10070000184707E02B4A11682C4A914220D1294B07
:1007100000221A60FFF722FF62B600F0B9FE00F077
:100720005FF80400264B802292039A60254A264BEC
:1007300053602148036A1B021B0AC02109060B43B0
:1007400003620023936007331360204E012511E0FC
:10075000184A1A4911601E4A013A002AFCD1154A6A
:1007600000211160C1E73378002B0BD1174B1B78A8
:10077000002B0DD02000A36898470028F3D0134B1E
:100780001D70F0E7002000F021FB00F0ABFBFCE760
:1007900000F0F2FE0028EDD0012000F017FB00F081
:1007A000A1FBFCE700200000042000001002002054
:1007B00000040040FC7F002000ED00E0358173075D
:1007C0000044004110E000E0E70300007700002053
:1007D00048E8010010B5FFF757FC00F069FB10BDB9
:1007E00010B5054C054B2360FFF72AFD216820005A
:1007F000FFF718FD200010BD14020020005000413A
:1008000070B5C0B005000C001600080001F067F8D4
:10081000400002306B46187003236A4653702378F9
:10082000002B17D07608012E16DD01226946023111
:100830000134881C0B8001322378002B02D0010088
:10084000B242F5DB5200002369462800FFF77EFD27
:1008500040B070BD0122F5E70122F3E7F0B583B0A7
:10086000050004680823FF331022E254B84B1A78BD
:10087000B84802705A78B84E32709978B74A1180E9
:100880001188DF783F02394311801979B44A118009
:1008900011885F793F02394311809979B14A1180FB
:1008A0001188DB791B020B43138082235B004022FB
:1008B000E254337802781B021343AB4A934200D1CF
:1008C0001EE125DC80225200934255D012DD8122A8
:1008D0005200934200D172E100DA6CE1FF32FF3244
:1008E000934200D107E1A14A93420CD12000FFF7C7
:1008F000D3FD3CE0812B00D1BFE0822B00D1C4E0CE
:10090000802B00D1B1E001212000FFF7B5FD2EE0E2
:1009100090221201934200D196E012DD944A934254
:1009200000D1B7E125DD934A934200D1B6E1924A66
:100930009342E8D1894B1B886B712000FFF7ACFD17
:1009400015E0D022D20093421BD08822120193429C
:1009500000D183E0A022D2009342D4D12000FFF73F
:100960009BFD7E4B198889B22868FFF7ADFD03B067
:10097000F0BD824A9342C6D101212000FFF77CFDE1
:10098000F5E7764B1B881B0A012B18D0734B1B888D
:100990001B0A022B22D0714B1B881B0A032B4ED142
:1009A0006E4B1B88FF221340012B38D0002B24D024
:1009B000022B3CD001212000FFF75EFDD7E728681D
:1009C000684B1B889BB21222122B02D8654B1A88E7
:1009D00092B200236A49FFF7B9FCC8E72868614B67
:1009E0001B889BB24322432B02D85E4B1A8892B2DB
:1009F00000236449FFF7AAFCB9E7634B1B68019326
:100A00002868584B1B889BB20422042B02D8554BF4
:100A10001A8892B2002301A9FFF798FCA7E7514B6F
:100A20001A88D2B228685949FFF7EAFE9FE74D4B72
:100A30001A88D2B228685649FFF7E2FE97E70121EB
:100A40002000FFF719FD92E7444B1B882B71200013
:100A5000FFF722FD2000FFF73DFD88E7291D2868EC
:100A600000230122FFF772FC81E74A4900230B8033
:100A700028680222FFF76AFC79E7464900230B80C9
:100A800028680222FFF762FC71E7424B00221A80BD
:100A9000334B1A8850210A403F490A701A880F21A7
:100AA0000A401A801B889BB2032B1FD83A4B1B7835
:100AB000002B10D02A4B1B8808335B01E418A37964
:100AC0009B06DB0F334A138028680023022231493A
:100AD000FFF73CFC4BE7224B1B8808335B01E41813
:100AE000A379DB06DB0F2B4A1380EDE70121200001
:100AF000FFF7C2FC3BE701212000FFF7BDFC36E712
:100B0000174B1A8880210A4023490A701A880F213E
:100B10000A401A80114B1B889BB2002B46D1104B08
:100B20001B889BB2002B41D00D4B1B889BB2032B23
:100B30003CD8194B1B78002B30D0094B1B8808334D
:100B40005B01E31820225A712000FFF7A5FC0EE795
:100B50009000002079000020780000208200002012
:100B60007C0000207E000020020300000103000042
:100B700021200000A121000021220000010B000023
:100B80000819000004000020041900001C190000CE
:100B900028190000800000207A000020474B1B88A5
:100BA00008335B01E31810225A71CDE701212000C0
:100BB000FFF762FCDBE62000FFF76EFCD7E63F4B59
:100BC0001A8880210A403E490A701A880F210A407B
:100BD0001A803C4B1B889BB2002B56D1374B1B888D
:100BE0009BB2002B51D0354B1B889BB2032B4CD8AA
:100BF000334B1B78002B25D0304B1B8808335B010F
:100C0000E3189B799B0619D52C4A138808335B019E
:100C1000E31811311971138808335B01E318DB798C
:100C20005B060BD5138808335B01E3182031D971BB
:100C3000138808335B01E31802221A712000FFF7C2
:100C40002BFC94E61D4B1B8808335B01E3189B7952
:100C5000DB06F3D5194A138808335B01E31810212A
:100C60001971138808335B01E318DB799B06E5D51E
:100C7000138808335B01E3181031D97113880833E6
:100C80005B01E31801221A71D8E701212000FFF768
:100C9000F3FB6CE62000FFF7FFFB68E628680A4BD1
:100CA0001B889BB20822082B02D8074B1A8892B2E5
:100CB00000230649FFF74AFB59E6C0467C000020A6
:100CC0007A000020820000207E00002048000020E2
:100CD00000B583B00190054B18680123012201A9DA
:100CE000FFF734FB012003B000BDC0461402002012
:100CF00010B582B06B46DC1D044B18680122210040
:100D0000FFF776FB207802B010BDC0461402002029
:100D100010B50748FFF73EFA03000020002B06D06D
:100D2000034B1A684823FF33D05CC007C00F10BDC7
:100D30001402002070B505000C00044B1868012354
:100D40000A002900FFF702FB200070BD14020020FA
:100D500070B504000D000848FFF71CFA00230028B6
:100D600001D1180070BD044B18682A002100FFF75C
:100D70003FFB0300F5E7C04614020020F8B505006C
:100D80000E000B48FFF706FA00280DD0002E0CD0FD
:100D90003400074F220029003868FFF729FB241A86
:100DA0002D18002CF6D100E000263000F8BDC0461A
:100DB0001402002010B50C00C368110020009847F1
:100DC000014B64221A8010BD8C000020012805D040
:100DD000002802D1054B064A1A607047034B054AAA
:100DE0001A60054B01221A70F7E7C0468402002002
:100DF000C0190000A419000084000020F0B585B0DF
:100E0000214B1B78002B37D0042908D002290FD0A2
:100E100004784E001CD004AB98190B3804E0046829
:100E20004E0004AB98190B3800250F22302708E03C
:100E30000488F5E737330370240901380135B542DA
:100E400006D213002340092BF4D83B430370F3E789
:100E500001AB30221A7048325A704A1C52000A21E3
:100E600099549E190331F17002320849086819003B
:100E7000FFF7A0FF05B0F0BD044B1B680A0001009E
:100E80001800FFF797FFF5E7850000208402002097
:100E900080B500AF72B6EFF30883044A13600368AD
:100EA00083F3088843681847BD4680BD8802002048
:100EB0000A4B1B889BB2002B04D0084A1388013BC5
:100EC0009BB21380064B1B889BB2002B04D0044AB4
:100ED0001388013B9BB213807047C0468C000020F2
:100EE00086000020F0B5DE4657464E464546E0B542
:100EF0008DB000AF08230822BA18D118CB4B0A00D6
:100F000031CB31C231CB31C211CB11C2C848836859
:100F10005B035B0F9B005A58C64B1A6083689BB2F9
:100F2000C5490B605343C54A1360C54B00221A6084
:100F3000C44B7A321A706EE2C34B1B78002B4BD134
:100F4000C04B1B78532B4ED0522B00D1BAE04F2B05
:100F500000D1C3E0482B00D1C6E0572B00D1C9E037
:100F60006F2B00D1CCE0682B00D1CFE0772B00D1E4
:100F7000D5E0472B00D1DBE0542B00D1ECE04E2B29
:100F800000D1F3E0562B00D1FFE0582B00D187E1D0
:100F9000592B00D1A1E15A2B59D1AC4B1E68A84B5B
:100FA0001B68002E00D1E5E11A009E1900237B602A
:100FB00015001078796800F001FB78606B1C1A004E
:100FC000B342F5D1A24B18680122A249FFF7F2FE05
:100FD0007B6807220F26D5E19D4B186802229E49A7
:100FE000FFF7E8FEACE79D4B1A689D4B1B689A42E1
:100FF0001ED99C48016801310160013398480360A3
:10100000D31A924A126893424CD2974A13608C4B7F
:101010001868954E326800F051FC336890490A68B0
:10102000D2180A608F490A68D2180A608F4A137072
:101030008B4A1368013B13608A4A1368013B1360B3
:101040008A4B1B78814A11688B422ED3C0467D4B58
:101050007A221A707D4B00221A607B4B1B78002B82
:1010600000D0A4E17E4A1368013313607D490A6809
:1010700001320A60794A1268934200D3CBE12368B7
:101080001B78FF2BEED0232B00D155E71A00303A06
:10109000092A00D992E16D490A681201303B1343D5
:1010A0000B60DFE7704B1A60B1E7C91A644B186830
:1010B000674B1B689B6998470028C7D06C4B64221C
:1010C0001A80C3E7614B19685D4B1868604B1B6859
:1010D0005B699847674B64221A80B8E7584B1B68D6
:1010E0005A4A12681A70B2E7554B1B68574A126881
:1010F0001A80ACE7524B1B68544A12681A60A6E784
:101100004F4B18680121FFF779FEA0E74F484C4B81
:101110001B681B8803600221FFF770FE97E7484BAE
:101120001B681B68494803600421FFF767FE8EE7D0
:10113000464B1868FFF7ACFE4F4B1B6883F30888DB
:1011400062B64E4B1B78002B00D180E7404B1B68EA
:101150001B68062098477AE73B4B01221A703C4BEC
:10116000186801323C49FFF725FE70E7364B1B78C3
:10117000002B03D0344B00221A7068E7344B1868F8
:1011800002223549FFF716FEF4E7314E01223C49B1
:101190003068FFF70FFE03223A493068FFF70AFE76
:1011A000012239493068FFF705FE0D2237493068C2
:1011B000FFF700FE306801223349FFF7FBFD284BA3
:1011C00000221A60274B324A1A602548190003682A
:1011D0005A1C02600B685E1C0E601B78002BF6D157
:1011E0001B4E2C493068FFF7E5FD30680122264987
:1011F000FFF7E0FD1A4B00221A601A4B264A1A60CC
:101200001748190003685A1C02600B685E1C0E60C8
:101210001B78002BF6D10E4E20493068FFF7CAFD2F
:10122000306802220C49FFF7C5FD10E738190000AD
:10123000004000413C020020340200203002002027
:10124000800200202C020020850000208C0200205B
:1012500084020020981900006C190000240200206C
:1012600038020020280200209002002020020020E6
:10127000860000208C0000208802002084000020CE
:101280007019000068190000741900005819000056
:1012900079190000781900008519000084190000F0
:1012A000674B1968674B1B6899420FD2664A674EB5
:1012B00064484B08D361664B1380137DDB07FCD574
:1012C00033689B00C91803689942F2D3614B1868D0
:1012D00003226149FFF76EFDB9E6594B1E68002EE7
:1012E0000AD15E4B1A685E4B1A605A4B186803228B
:1012F0005C49FFF75FFDAAE6B608594B1B689C46A0
:10130000564B1B689B46504A536880218B43536061
:10131000002EEAD01000544B9A464C4B9946534B42
:1013200098460AE0002342460280027DD207FCD59F
:101330009A0093449444F61AD7D053460380037D11
:10134000DB07FCD54B461B68032BEBD9002E0FD0D7
:10135000002100235A4665466D58555001333B4ADB
:10136000126892089342DED20431B342F2D1DAE736
:101370003300D8E700237B6024E6082179188854DD
:10138000013A09D3310019401B09080030300929FE
:10139000F3DD37310800F0E72E4E08223068FFF702
:1013A00009FD306803223249FFF704FD4FE6294B5F
:1013B000186801322F49FFF7FDFC53E61A00413A45
:1013C000052A06D81E490A681201373B13430B60F1
:1013D00048E61A00613A052A06D819490A68120136
:1013E000573B13430B603DE62C2B05D0224A13706C
:1013F000134B00221A6035E6114B184A1968116028
:1014000000221A602EE600231C4A13601C4A1D4964
:1014100011601D4A13600F4B1B681B69402119485E
:1014200098470028EFD0194B64221A80134B18609C
:10143000134B144A1A60144B00221A60104C1EE61B
:101440008C02002030020020004000413C020020BD
:1014500002A5FFFF840200209019000080020020F6
:10146000880000209419000044A5FFFF04A5FFFF99
:101470009C190000A01900002C020020240200206A
:1014800028020020400200203802002086000020B0
:1014900010B51E4BD6215A5C012422435A54BB225C
:1014A000985CC73988439854985C03210843985442
:1014B000D720195C21431954995CC83801409954CC
:1014C000995C302001439954114A136A80210B43DF
:1014D0001362104B104A5A801A0053785BB2002BEB
:1014E000FBDBC42292030D490D48FEF70DFE0023DD
:1014F0000C4A13700C4A13700C4A13700C4A137088
:101500000C4A13700C4A137010BDC04600440041D1
:1015100000040040000C0040194000002AF60000C2
:10152000001C0042940200201E03002095020020AF
:10153000980200201F0300201C03002010B5C1B238
:101540000248FEF70DFE012010BDC046001C0042FF
:10155000024B187E4007C00F7047C046001C004277
:1015600010B5FFF7F5FF0028FBD00248FEF7FEFD9F
:1015700010BDC046001C004210B5FFF7E9FF002374
:10158000002801D1180010BDFFF7EAFF23384342BD
:101590004341F7E770B504000E1E06D045182078C9
:1015A000FFF7CCFF0134A542F9D1300070BD10B572
:1015B0000400FFF7D5FF2070012010BD0B0A434047
:1015C0005B000902024A985A484080B27047C04600
:1015D000DC190000F0B5DE4657464E464546E0B5FC
:1015E00083B001908B464C4B00221A70002918D111
:1015F0004A4B01321A70484C0025FFF7B1FF23789F
:10160000002B1CD1C0B2432803D071287CD01528F0
:10161000F3D101239946424B98461C003F4B9A4612
:1016200062E03F4B19803D4B00221A700B005B06B5
:10163000E1D00B0080337F3293439B46DBE7364B90
:101640001D70FFF78DFFC0B2334B1B78002BDAD033
:10165000314B00221A70002057E02F4B00221A70E5
:10166000002052E00420FFF769FFFFF779FF2B4BC2
:1016700000221A70012048E03D78013B23800137A9
:101680002800FFF75BFF00992800FFF797FF009005
:10169000013E002E08D043461B88002BECD1524659
:1016A0001578002DECD0E7E70500000AC0B2FFF77F
:1016B00045FFE8B2FFF742FFFFF752FF164B1B78DA
:1016C000002BCAD1FF23184006280AD14B4601330C
:1016D000DBB2994680235B429C46E344019B803306
:1016E00001935B46002BBDD00120FFF727FF484642
:1016F000FFF724FF4B46D843C0B2FFF71FFF019FFF
:10170000802600230093C6E7002003B03CBC90462F
:101710009946A246AB46F0BD1C0300201D030020E5
:1017200096020020F0B5D646474680B583B0060045
:101730000F1E2BD0002400230193194B9A46194BFE
:10174000984608E0731C35701E00802F18D00134B5
:10175000A4B2A7421ED0FFF703FFC5B253461B78C1
:10176000002B15D101992800FFF728FF019043466F
:101770001B88002BE6D10C4B1B78002BE7D0E1E750
:10178000084A1288013A07490A80E0E7019101E01E
:1017900001230193019803B00CBC90469A46F0BD1A
:1017A0001C030020960200201D030020F0B585B028
:1017B00005003E4B00221A70002904D13C4B013237
:1017C0001A7064260AE03B4B1980394B00221A70CC
:1017D000F7E7002C0ED1013E002E65D04320FFF725
:1017E000ADFE354CFFF7B4FE0028F2D1002CF2D04C
:1017F000013CF7E701242D4E41E02C4B00221A70EA
:1018000000204BE0022103A8FFF78CFF8021280075
:10181000FFF788FF0190254B1B78002B08D0234B46
:101820001B78002B36D0214B00221A70002035E0A7
:10183000FFF796FE0700FFF793FE1C4B1A78012A6C
:10184000EDD03F02381880B2019B834203D103AB35
:101850001B78A34203D01820FFF770FEDFE7E343B5
:1018600003AA5278DBB29A42F5D10620FFF766FE52
:101870000E4B1B78002BD6D10134E4B28035FFF734
:101880006FFE3378002BB8D1FF2318400128B9D060
:10189000042805D0064B00221A70012005B0F0BDC7
:1018A0000620FFF74BFEF5E70020F7E71C030020BA
:1018B0001D0300209602002000350C00002310B507
:1018C0009A4200D110BDCC5CC4540133F8E7030048
:1018D0001218934200D1704719700133F9E70023C1
:1018E000C25C0133002AFBD1581E7047F8B5C046D0
:1018F000F8BC08BC9E467047F8B5C046F8BC08BCAA
:101900009E467047040309041201000202000040D1
:10191000D804ABEA000201020001000041726475C4
:10192000696E6F204C4C430054656C6974204368A9
:1019300061726C6965000000080000001000000082
:1019400020000000400000008000000000010000B6
:1019500000020000000400005B41726475696E6F54
:101960003A58595A5D000000322E30000A0D00002E
:1019700076000000200000004E6F762031332032C8
:101980003032300032323A35363A3533000000001A
:10199000580A0D00590A0D005A000000230A0D00D4
:1019A0003E0000003D1500006115000051150000CB
:1019B00095150000AF150000D5150000AD1700000B
:1019C000D10C0000F10C0000110D0000350D0000DD
:1019D000510D0000350D00007D0D000000002110AC
:1019E000422063308440A550C660E7700881299189
:1019F0004AA16BB18CC1ADD1CEE1EFF13112100231
:101A000073325222B5529442F772D66239931883D8
:101A10007BB35AA3BDD39CC3FFF3DEE362244334FC
:101A200020040114E664C774A44485546AA54BB528
:101A300028850995EEE5CFF5ACC58DD553367226D0
:101A400011163006D776F6669556B4465BB77AA778
:101A500019973887DFF7FEE79DD7BCC7C448E5581C
:101A60008668A7784008611802282338CCC9EDD9C8
:101A70008EE9AFF9488969990AA92BB9F55AD44A70
:101A8000B77A966A711A500A333A122AFDDBDCCB18
:101A9000BFFB9EEB799B588B3BBB1AABA66C877C3C
:101AA000E44CC55C222C033C600C411CAEED8FFD68
:101AB000ECCDCDDD2AAD0BBD688D499D977EB66E10
:101AC000D55EF44E133E322E511E700E9FFFBEEFB8
:101AD000DDDFFCCF1BBF3AAF599F788F8891A9817A
:101AE000CAB1EBA10CD12DC14EF16FE18010A10064
:101AF000C230E3200450254046706760B983989354
:101B0000FBA3DAB33DC31CD37FE35EF3B1029012B3
:101B1000F322D2323542145277625672EAB5CBA51F
:101B2000A89589856EF54FE52CD50DC5E234C32403
:101B3000A01481046674476424540544DBA7FAB7F3
:101B40009987B8975FE77EF71DC73CD7D326F23653
:101B50009106B01657667676154634564CD96DC93F
:101B60000EF92FE9C899E9898AB9ABA944586548A3
:101B700006782768C018E1088238A3287DCB5CDB93
:101B80003FEB1EFBF98BD89BBBAB9ABB754A545AF3
:101B9000376A167AF10AD01AB32A923A2EFD0FED5F
:101BA0006CDD4DCDAABD8BADE89DC98D267C076C43
:101BB000645C454CA23C832CE01CC10C1FEF3EFF33
:101BC0005DCF7CDF9BAFBABFD98FF89F176E367E93
:101BD000554E745E932EB23ED10EF01E00000000F2
:101BE00001140000090243000201008032090400D0
:101BF0000001020200000524001001042402000577
:101C0000240600010524010001070583030800FFE5
:101C100009040100020A00000007058102400000DB
:101C2000070502024000000000C201000000080099
:081C3000690000004100000002
:040000030000064DA6
:00000001FF
